{
  "_format": "hh-sol-artifact-1",
  "contractName": "cryptoJengaV5",
  "sourceName": "contracts/cryptoJenga_v5.sol",
  "abi": [
    {
      "inputs": [
        {
          "internalType": "address",
          "name": "_vrfCoordinator",
          "type": "address"
        }
      ],
      "stateMutability": "nonpayable",
      "type": "constructor"
    },
    {
      "inputs": [
        {
          "internalType": "address",
          "name": "have",
          "type": "address"
        },
        {
          "internalType": "address",
          "name": "want",
          "type": "address"
        }
      ],
      "name": "OnlyCoordinatorCanFulfill",
      "type": "error"
    },
    {
      "anonymous": false,
      "inputs": [
        {
          "indexed": false,
          "internalType": "address",
          "name": "_player",
          "type": "address"
        },
        {
          "indexed": false,
          "internalType": "uint256",
          "name": "_betCount",
          "type": "uint256"
        }
      ],
      "name": "BetMade",
      "type": "event"
    },
    {
      "anonymous": false,
      "inputs": [
        {
          "indexed": false,
          "internalType": "address",
          "name": "_gameWinner",
          "type": "address"
        },
        {
          "indexed": false,
          "internalType": "uint256",
          "name": "amountWon",
          "type": "uint256"
        }
      ],
      "name": "GameEnded",
      "type": "event"
    },
    {
      "anonymous": false,
      "inputs": [
        {
          "indexed": false,
          "internalType": "string",
          "name": "_currentState",
          "type": "string"
        }
      ],
      "name": "GameState",
      "type": "event"
    },
    {
      "anonymous": false,
      "inputs": [
        {
          "indexed": true,
          "internalType": "address",
          "name": "previousOwner",
          "type": "address"
        },
        {
          "indexed": true,
          "internalType": "address",
          "name": "newOwner",
          "type": "address"
        }
      ],
      "name": "OwnershipTransferred",
      "type": "event"
    },
    {
      "anonymous": false,
      "inputs": [
        {
          "indexed": false,
          "internalType": "address",
          "name": "_joinedPlayer",
          "type": "address"
        }
      ],
      "name": "PlayerJoined",
      "type": "event"
    },
    {
      "anonymous": false,
      "inputs": [
        {
          "indexed": false,
          "internalType": "uint256",
          "name": "requestId",
          "type": "uint256"
        }
      ],
      "name": "RequestedRandomness",
      "type": "event"
    },
    {
      "anonymous": false,
      "inputs": [
        {
          "indexed": false,
          "internalType": "uint256",
          "name": "_currentRoundNumber",
          "type": "uint256"
        }
      ],
      "name": "RevealEnded",
      "type": "event"
    },
    {
      "anonymous": false,
      "inputs": [
        {
          "indexed": false,
          "internalType": "uint256",
          "name": "_currentRoundNumber",
          "type": "uint256"
        }
      ],
      "name": "RevealStarted",
      "type": "event"
    },
    {
      "anonymous": false,
      "inputs": [
        {
          "indexed": false,
          "internalType": "uint256",
          "name": "_currentRoundNumber",
          "type": "uint256"
        }
      ],
      "name": "RoundEnded",
      "type": "event"
    },
    {
      "anonymous": false,
      "inputs": [
        {
          "indexed": false,
          "internalType": "uint256",
          "name": "_currentRoundNumber",
          "type": "uint256"
        }
      ],
      "name": "RoundStarted",
      "type": "event"
    },
    {
      "anonymous": false,
      "inputs": [
        {
          "indexed": false,
          "internalType": "address",
          "name": "_roundWinner",
          "type": "address"
        },
        {
          "indexed": false,
          "internalType": "uint256",
          "name": "_amountWon",
          "type": "uint256"
        }
      ],
      "name": "RoundWinner",
      "type": "event"
    },
    {
      "anonymous": false,
      "inputs": [],
      "name": "Test",
      "type": "event"
    },
    {
      "inputs": [],
      "name": "LinkFee",
      "outputs": [
        {
          "internalType": "uint256",
          "name": "",
          "type": "uint256"
        }
      ],
      "stateMutability": "view",
      "type": "function"
    },
    {
      "inputs": [],
      "name": "RoundStartTime",
      "outputs": [
        {
          "internalType": "uint256",
          "name": "",
          "type": "uint256"
        }
      ],
      "stateMutability": "view",
      "type": "function"
    },
    {
      "inputs": [],
      "name": "TicketPrice",
      "outputs": [
        {
          "internalType": "uint256",
          "name": "",
          "type": "uint256"
        }
      ],
      "stateMutability": "view",
      "type": "function"
    },
    {
      "inputs": [],
      "name": "USDTicketPrice",
      "outputs": [
        {
          "internalType": "uint256",
          "name": "",
          "type": "uint256"
        }
      ],
      "stateMutability": "view",
      "type": "function"
    },
    {
      "inputs": [
        {
          "internalType": "uint256",
          "name": "betSize",
          "type": "uint256"
        }
      ],
      "name": "bet",
      "outputs": [],
      "stateMutability": "nonpayable",
      "type": "function"
    },
    {
      "inputs": [
        {
          "internalType": "bytes",
          "name": "",
          "type": "bytes"
        }
      ],
      "name": "checkUpkeep",
      "outputs": [
        {
          "internalType": "bool",
          "name": "upkeepNeeded",
          "type": "bool"
        },
        {
          "internalType": "bytes",
          "name": "",
          "type": "bytes"
        }
      ],
      "stateMutability": "view",
      "type": "function"
    },
    {
      "inputs": [],
      "name": "choiceWinnerForCurrentRound",
      "outputs": [],
      "stateMutability": "nonpayable",
      "type": "function"
    },
    {
      "inputs": [],
      "name": "count",
      "outputs": [
        {
          "internalType": "uint256",
          "name": "",
          "type": "uint256"
        }
      ],
      "stateMutability": "view",
      "type": "function"
    },
    {
      "inputs": [],
      "name": "gameId",
      "outputs": [
        {
          "internalType": "uint256",
          "name": "",
          "type": "uint256"
        }
      ],
      "stateMutability": "view",
      "type": "function"
    },
    {
      "inputs": [],
      "name": "gameWinner",
      "outputs": [
        {
          "internalType": "address payable",
          "name": "",
          "type": "address"
        }
      ],
      "stateMutability": "view",
      "type": "function"
    },
    {
      "inputs": [],
      "name": "game_state",
      "outputs": [
        {
          "internalType": "enum cryptoJengaV5.GAME_STATE",
          "name": "",
          "type": "uint8"
        }
      ],
      "stateMutability": "view",
      "type": "function"
    },
    {
      "inputs": [],
      "name": "getContractBalance",
      "outputs": [
        {
          "internalType": "uint256",
          "name": "",
          "type": "uint256"
        }
      ],
      "stateMutability": "view",
      "type": "function"
    },
    {
      "inputs": [],
      "name": "getLinkBalance",
      "outputs": [
        {
          "internalType": "uint256",
          "name": "",
          "type": "uint256"
        }
      ],
      "stateMutability": "view",
      "type": "function"
    },
    {
      "inputs": [],
      "name": "getNumberofPlayers",
      "outputs": [
        {
          "internalType": "uint256",
          "name": "",
          "type": "uint256"
        }
      ],
      "stateMutability": "view",
      "type": "function"
    },
    {
      "inputs": [],
      "name": "getPlayerAddresses",
      "outputs": [
        {
          "internalType": "address payable[]",
          "name": "",
          "type": "address[]"
        }
      ],
      "stateMutability": "view",
      "type": "function"
    },
    {
      "inputs": [],
      "name": "getRoundRemainingTime",
      "outputs": [
        {
          "internalType": "uint256",
          "name": "",
          "type": "uint256"
        }
      ],
      "stateMutability": "view",
      "type": "function"
    },
    {
      "inputs": [],
      "name": "isGameStateOpen",
      "outputs": [
        {
          "internalType": "bool",
          "name": "",
          "type": "bool"
        }
      ],
      "stateMutability": "nonpayable",
      "type": "function"
    },
    {
      "inputs": [],
      "name": "joinGame",
      "outputs": [],
      "stateMutability": "payable",
      "type": "function"
    },
    {
      "inputs": [],
      "name": "keyhash",
      "outputs": [
        {
          "internalType": "bytes32",
          "name": "",
          "type": "bytes32"
        }
      ],
      "stateMutability": "view",
      "type": "function"
    },
    {
      "inputs": [],
      "name": "owner",
      "outputs": [
        {
          "internalType": "address",
          "name": "",
          "type": "address"
        }
      ],
      "stateMutability": "view",
      "type": "function"
    },
    {
      "inputs": [
        {
          "internalType": "bytes",
          "name": "",
          "type": "bytes"
        }
      ],
      "name": "performUpkeep",
      "outputs": [],
      "stateMutability": "nonpayable",
      "type": "function"
    },
    {
      "inputs": [],
      "name": "randomness",
      "outputs": [
        {
          "internalType": "uint256",
          "name": "",
          "type": "uint256"
        }
      ],
      "stateMutability": "view",
      "type": "function"
    },
    {
      "inputs": [
        {
          "internalType": "uint256",
          "name": "requestId",
          "type": "uint256"
        },
        {
          "internalType": "uint256[]",
          "name": "randomWords",
          "type": "uint256[]"
        }
      ],
      "name": "rawFulfillRandomWords",
      "outputs": [],
      "stateMutability": "nonpayable",
      "type": "function"
    },
    {
      "inputs": [],
      "name": "renounceOwnership",
      "outputs": [],
      "stateMutability": "nonpayable",
      "type": "function"
    },
    {
      "inputs": [],
      "name": "requestRandomWords",
      "outputs": [],
      "stateMutability": "nonpayable",
      "type": "function"
    },
    {
      "inputs": [
        {
          "internalType": "uint256",
          "name": "",
          "type": "uint256"
        }
      ],
      "name": "s_randomWords",
      "outputs": [
        {
          "internalType": "uint256",
          "name": "",
          "type": "uint256"
        }
      ],
      "stateMutability": "view",
      "type": "function"
    },
    {
      "inputs": [],
      "name": "s_requestId",
      "outputs": [
        {
          "internalType": "uint256",
          "name": "",
          "type": "uint256"
        }
      ],
      "stateMutability": "view",
      "type": "function"
    },
    {
      "inputs": [],
      "name": "startGame",
      "outputs": [],
      "stateMutability": "nonpayable",
      "type": "function"
    },
    {
      "inputs": [],
      "name": "testEmit",
      "outputs": [],
      "stateMutability": "nonpayable",
      "type": "function"
    },
    {
      "inputs": [],
      "name": "testUpkeepCounter",
      "outputs": [
        {
          "internalType": "uint256",
          "name": "",
          "type": "uint256"
        }
      ],
      "stateMutability": "view",
      "type": "function"
    },
    {
      "inputs": [
        {
          "internalType": "address",
          "name": "newOwner",
          "type": "address"
        }
      ],
      "name": "transferOwnership",
      "outputs": [],
      "stateMutability": "nonpayable",
      "type": "function"
    },
    {
      "inputs": [],
      "name": "withdrawEth",
      "outputs": [],
      "stateMutability": "nonpayable",
      "type": "function"
    },
    {
      "inputs": [
        {
          "internalType": "uint256",
          "name": "amount",
          "type": "uint256"
        },
        {
          "internalType": "address",
          "name": "to",
          "type": "address"
        }
      ],
      "name": "withdrawLINK",
      "outputs": [],
      "stateMutability": "nonpayable",
      "type": "function"
    }
  ],
  "bytecode": "0x60a060405273326c977e6efc84e512bb9c30f76e30c160ed06fb600860006101000a81548173ffffffffffffffffffffffffffffffffffffffff021916908373ffffffffffffffffffffffffffffffffffffffff1602179055506000600f5560006010556000601155620f42406012556003601f60006101000a81548161ffff021916908361ffff1602179055506002601f60026101000a81548163ffffffff021916908363ffffffff160217905550620186a0601f60066101000a81548163ffffffff021916908363ffffffff160217905550348015620000e057600080fd5b506040516200399c3803806200399c833981810160405281019062000106919062000443565b808073ffffffffffffffffffffffffffffffffffffffff1660808173ffffffffffffffffffffffffffffffffffffffff1681525050506200015c620001506200030d60201b60201c565b6200031560201b60201c565b600a60028190555073d4a33860578de61dbabdc8bfdb98fd742fa7028e600660006101000a81548173ffffffffffffffffffffffffffffffffffffffff021916908373ffffffffffffffffffffffffffffffffffffffff1602179055506000601b60146101000a81548160ff02191690836004811115620001e257620001e162000475565b5b021790555067016345785d8a0000601c819055506005600d819055507f79d3d8832d904592c0bf9818b621522c988bb8b0c05cdc3b15aea1b6e8db0c1560001b601e819055506048601d60006101000a81548167ffffffffffffffff021916908367ffffffffffffffff160217905550600860009054906101000a900473ffffffffffffffffffffffffffffffffffffffff16600760006101000a81548173ffffffffffffffffffffffffffffffffffffffff021916908373ffffffffffffffffffffffffffffffffffffffff160217905550603c600a819055506003600b8190555080600160006101000a81548173ffffffffffffffffffffffffffffffffffffffff021916908373ffffffffffffffffffffffffffffffffffffffff16021790555050620004a4565b600033905090565b60008060009054906101000a900473ffffffffffffffffffffffffffffffffffffffff169050816000806101000a81548173ffffffffffffffffffffffffffffffffffffffff021916908373ffffffffffffffffffffffffffffffffffffffff1602179055508173ffffffffffffffffffffffffffffffffffffffff168173ffffffffffffffffffffffffffffffffffffffff167f8be0079c531659141344cd1fd0a4f28419497f9722a3daafe3b4186f6b6457e060405160405180910390a35050565b600080fd5b600073ffffffffffffffffffffffffffffffffffffffff82169050919050565b60006200040b82620003de565b9050919050565b6200041d81620003fe565b81146200042957600080fd5b50565b6000815190506200043d8162000412565b92915050565b6000602082840312156200045c576200045b620003d9565b5b60006200046c848285016200042c565b91505092915050565b7f4e487b7100000000000000000000000000000000000000000000000000000000600052602160045260246000fd5b6080516134d5620004c760003960008181610708015261075c01526134d56000f3fe6080604052600436106101ee5760003560e01c8063865578fa1161010d578063d4f77b1c116100a0578063db7322791161006f578063db73227914610641578063e0c8628914610658578063e89e106a1461066f578063f2fde38b1461069a578063f6eaffc8146106c3576101ee565b8063d4f77b1c146105ca578063d65ab5f2146105d4578063d7c81b55146105eb578063d813679b14610616576101ee565b8063a4c1fb5a116100dc578063a4c1fb5a14610520578063b472f74d14610549578063c94f598b14610574578063d089270e1461059f576101ee565b8063865578fa1461049c5780638ae43b54146104b35780638da5cb5b146104de578063a0ef91df14610509576101ee565b806353321c88116101855780636f9fb98a116101545780636f9fb98a14610406578063715018a614610431578063724d4924146104485780637365870b14610473576101ee565b806353321c881461034757806366654a711461037257806369ebe78e1461039d5780636e04ff0d146103c8576101ee565b80634585e33b116101c15780634585e33b1461029d57806349a706ce146102c65780634f235926146102f157806350c5f9751461031c576101ee565b806306661abd146101f35780631fe543e31461021e57806336013189146102475780633e6785d714610272575b600080fd5b3480156101ff57600080fd5b50610208610700565b60405161021591906122fc565b60405180910390f35b34801561022a57600080fd5b50610245600480360381019061024091906124b0565b610706565b005b34801561025357600080fd5b5061025c6107c6565b60405161026991906122fc565b60405180910390f35b34801561027e57600080fd5b506102876107cc565b60405161029491906122fc565b60405180910390f35b3480156102a957600080fd5b506102c460048036038101906102bf9190612567565b6107d2565b005b3480156102d257600080fd5b506102db610860565b6040516102e891906122fc565b60405180910390f35b3480156102fd57600080fd5b5061030661086d565b60405161031391906125cf565b60405180910390f35b34801561032857600080fd5b506103316108ab565b60405161033e91906122fc565b60405180910390f35b34801561035357600080fd5b5061035c61095d565b60405161036991906122fc565b60405180910390f35b34801561037e57600080fd5b50610387610a55565b60405161039491906122fc565b60405180910390f35b3480156103a957600080fd5b506103b2610a5b565b6040516103bf9190612603565b60405180910390f35b3480156103d457600080fd5b506103ef60048036038101906103ea9190612567565b610a61565b6040516103fd9291906126a6565b60405180910390f35b34801561041257600080fd5b5061041b610abf565b60405161042891906122fc565b60405180910390f35b34801561043d57600080fd5b50610446610ac7565b005b34801561045457600080fd5b5061045d610adb565b60405161046a91906127c6565b60405180910390f35b34801561047f57600080fd5b5061049a600480360381019061049591906127e8565b610b69565b005b3480156104a857600080fd5b506104b1610e25565b005b3480156104bf57600080fd5b506104c8610f86565b6040516104d5919061288c565b60405180910390f35b3480156104ea57600080fd5b506104f3610f99565b60405161050091906128c8565b60405180910390f35b34801561051557600080fd5b5061051e610fc2565b005b34801561052c57600080fd5b506105476004803603810190610542919061290f565b611013565b005b34801561055557600080fd5b5061055e6110cf565b60405161056b91906122fc565b60405180910390f35b34801561058057600080fd5b506105896110d5565b604051610596919061295e565b60405180910390f35b3480156105ab57600080fd5b506105b46110fb565b6040516105c191906122fc565b60405180910390f35b6105d2611101565b005b3480156105e057600080fd5b506105e9611395565b005b3480156105f757600080fd5b506106006114bd565b60405161060d91906122fc565b60405180910390f35b34801561062257600080fd5b5061062b6114c3565b60405161063891906122fc565b60405180910390f35b34801561064d57600080fd5b50610656611506565b005b34801561066457600080fd5b5061066d61153c565b005b34801561067b57600080fd5b5061068461154f565b60405161069191906122fc565b60405180910390f35b3480156106a657600080fd5b506106c160048036038101906106bc9190612979565b611555565b005b3480156106cf57600080fd5b506106ea60048036038101906106e591906127e8565b6115d9565b6040516106f791906122fc565b60405180910390f35b600f5481565b7f000000000000000000000000000000000000000000000000000000000000000073ffffffffffffffffffffffffffffffffffffffff163373ffffffffffffffffffffffffffffffffffffffff16146107b857337f00000000000000000000000000000000000000000000000000000000000000006040517f1cf993f40000000000000000000000000000000000000000000000000000000081526004016107af9291906129a6565b60405180910390fd5b6107c282826115fd565b5050565b60055481565b601c5481565b600160048111156107e6576107e5612815565b5b601b60149054906101000a900460ff16600481111561080857610807612815565b5b1480156108235750600a546009544261082191906129fe565b115b1561085c576002601b60146101000a81548160ff0219169083600481111561084e5761084d612815565b5b021790555061085b610e25565b5b5050565b6000600380549050905090565b60006001600481111561088357610882612815565b5b601b60149054906101000a900460ff1660048111156108a5576108a4612815565b5b14905090565b6000600760009054906101000a900473ffffffffffffffffffffffffffffffffffffffff1673ffffffffffffffffffffffffffffffffffffffff166370a08231306040518263ffffffff1660e01b815260040161090891906128c8565b60206040518083038186803b15801561092057600080fd5b505afa158015610934573d6000803e3d6000fd5b505050506040513d601f19601f820116820180604052508101906109589190612a47565b905090565b600080600660009054906101000a900473ffffffffffffffffffffffffffffffffffffffff1673ffffffffffffffffffffffffffffffffffffffff1663feaf968c6040518163ffffffff1660e01b815260040160a06040518083038186803b1580156109c857600080fd5b505afa1580156109dc573d6000803e3d6000fd5b505050506040513d601f19601f82011682018060405250810190610a009190612aec565b505050915050600081905060006a52b7d2dcc80cd2e4000000600254610a269190612b67565b90506000670de0b6b3a764000083610a3e9190612b67565b82610a499190612bf0565b90508094505050505090565b60025481565b601e5481565b6000606060016004811115610a7957610a78612815565b5b601b60149054906101000a900460ff166004811115610a9b57610a9a612815565b5b148015610ab65750600a5460095442610ab491906129fe565b115b91509250929050565b600047905090565b610acf611eb9565b610ad96000611f37565b565b60606019805480602002602001604051908101604052809291908181526020018280548015610b5f57602002820191906000526020600020905b8160009054906101000a900473ffffffffffffffffffffffffffffffffffffffff1673ffffffffffffffffffffffffffffffffffffffff1681526020019060010190808311610b15575b5050505050905090565b60016004811115610b7d57610b7c612815565b5b601b60149054906101000a900460ff166004811115610b9f57610b9e612815565b5b14610ba957600080fd5b600a5460095442610bba91906129fe565b10610bfa576040517f08c379a0000000000000000000000000000000000000000000000000000000008152600401610bf190612c7e565b60405180910390fd5b6000610c0533611ffb565b905080821115610c4a576040517f08c379a0000000000000000000000000000000000000000000000000000000008152600401610c4190612cea565b60405180910390fd5b600160146000601054815260200190815260200160002060006001600c54610c7291906129fe565b815260200190815260200160002060003373ffffffffffffffffffffffffffffffffffffffff1673ffffffffffffffffffffffffffffffffffffffff16815260200190815260200160002060006101000a81548160ff02191690831515021790555060156000601054815260200190815260200160002060006001600c54610cfa91906129fe565b815260200190815260200160002060003373ffffffffffffffffffffffffffffffffffffffff1673ffffffffffffffffffffffffffffffffffffffff168152602001908152602001600020604051806020016040528084815250908060018154018082558091505060019003906000526020600020016000909190919091506000820151816000015550506003339080600181540180825580915050600190039060005260206000200160009091909190916101000a81548173ffffffffffffffffffffffffffffffffffffffff021916908373ffffffffffffffffffffffffffffffffffffffff1602179055507f1b84841732b5baa9714dd2d98d4f18d381cb77b0afb57a36de22cbea66b84d8b3383604051610e19929190612d0a565b60405180910390a15050565b60026004811115610e3957610e38612815565b5b601b60149054906101000a900460ff166004811115610e5b57610e5a612815565b5b14610e9b576040517f08c379a0000000000000000000000000000000000000000000000000000000008152600401610e9290612d7f565b60405180910390fd5b6000610ea5612125565b90507f5d7d0431c4991fcc9f63f03ad0ead4128b866a8ed115a818b6d87a3afedb726481604051610ed691906122fc565b60405180910390a17fcb4b24a99cfd8e8fb2105a9a3e7f714baac78277d64f113e4edee1dceafbdecb604051610f0b90612deb565b60405180910390a17faa97d4a7b3afec5f55c25ca8593dde6929d4455fad650a16fa4334004293a6186001604051610f439190612e50565b60405180910390a17fd88c412b8067e5b328e01545d054149ce900e3b2929fb3f83abef44483fdf7156001604051610f7b9190612e50565b60405180910390a150565b601b60149054906101000a900460ff1681565b60008060009054906101000a900473ffffffffffffffffffffffffffffffffffffffff16905090565b610fca611eb9565b3373ffffffffffffffffffffffffffffffffffffffff166108fc479081150290604051600060405180830381858888f19350505050158015611010573d6000803e3d6000fd5b50565b61101b611eb9565b600760009054906101000a900473ffffffffffffffffffffffffffffffffffffffff1673ffffffffffffffffffffffffffffffffffffffff1663a9059cbb82846040518363ffffffff1660e01b8152600401611078929190612d0a565b602060405180830381600087803b15801561109257600080fd5b505af11580156110a6573d6000803e3d6000fd5b505050506040513d601f19601f820116820180604052508101906110ca9190612e97565b505050565b60115481565b601b60009054906101000a900473ffffffffffffffffffffffffffffffffffffffff1681565b60095481565b6000600481111561111557611114612815565b5b601b60149054906101000a900460ff16600481111561113757611136612815565b5b14611177576040517f08c379a000000000000000000000000000000000000000000000000000000000815260040161116e90612f36565b60405180910390fd5b60125461118261095d565b61118c91906129fe565b3410156111ce576040517f08c379a00000000000000000000000000000000000000000000000000000000081526004016111c590612fa2565b60405180910390fd5b601a60003373ffffffffffffffffffffffffffffffffffffffff1673ffffffffffffffffffffffffffffffffffffffff16815260200190815260200160002060009054906101000a900460ff166112db576001601a60003373ffffffffffffffffffffffffffffffffffffffff1673ffffffffffffffffffffffffffffffffffffffff16815260200190815260200160002060006101000a81548160ff0219169083151502179055506019339080600181540180825580915050600190039060005260206000200160009091909190916101000a81548173ffffffffffffffffffffffffffffffffffffffff021916908373ffffffffffffffffffffffffffffffffffffffff1602179055505b60006064605a346112ec9190612b67565b6112f69190612bf0565b905080601760006010548152602001908152602001600020600082825461131d9190612fc2565b92505081905550803461133091906129fe565b60186000601054815260200190815260200160002060008282546113549190612fc2565b925050819055507f31e760aa525306aba638a784082a013b6a1cc0a9a1789f3f22281c0453b10b1f3360405161138a91906128c8565b60405180910390a150565b61139d611eb9565b600060048111156113b1576113b0612815565b5b601b60149054906101000a900460ff1660048111156113d3576113d2612815565b5b14611413576040517f08c379a000000000000000000000000000000000000000000000000000000000815260040161140a90613064565b60405180910390fd5b6001601b60146101000a81548160ff0219169083600481111561143957611438612815565b5b0217905550426009819055506001600c819055507fcb4b24a99cfd8e8fb2105a9a3e7f714baac78277d64f113e4edee1dceafbdecb60405161147a906130d0565b60405180910390a17f33a701182892fd888ed152ca2ac23771a32e814469b7cd255965471e1af3a659600c546040516114b391906122fc565b60405180910390a1565b60105481565b600042600a546009546114d69190612fc2565b10156114e55760009050611503565b42600a546009546114f69190612fc2565b61150091906129fe565b90505b90565b61150e611eb9565b7fa163a6249e860c278ef4049759a7f7c7e8c141d30fd634fda9b5a6a95d111a3060405160405180910390a1565b611544611eb9565b61154c612125565b50565b600e5481565b61155d611eb9565b600073ffffffffffffffffffffffffffffffffffffffff168173ffffffffffffffffffffffffffffffffffffffff1614156115cd576040517f08c379a00000000000000000000000000000000000000000000000000000000081526004016115c490613162565b60405180910390fd5b6115d681611f37565b50565b601381815481106115e957600080fd5b906000526020600020016000915090505481565b6002600481111561161157611610612815565b5b601b60149054906101000a900460ff16600481111561163357611632612815565b5b14611673576040517f08c379a000000000000000000000000000000000000000000000000000000000815260040161166a90612d7f565b60405180910390fd5b60008151116116b7576040517f08c379a00000000000000000000000000000000000000000000000000000000081526004016116ae906131ce565b60405180910390fd5b6000816000815181106116cd576116cc6131ee565b5b6020026020010151905060006003805490509050600081836116ef919061321d565b905060005b8281101561197d57600060156000601054815260200190815260200160002060006001600c5461172491906129fe565b8152602001908152602001600020600060038481548110611748576117476131ee565b5b9060005260206000200160009054906101000a900473ffffffffffffffffffffffffffffffffffffffff1673ffffffffffffffffffffffffffffffffffffffff1673ffffffffffffffffffffffffffffffffffffffff168152602001908152602001600020805480602002602001604051908101604052809291908181526020016000905b8282101561180557838290600052602060002001604051806020016040529081600082015481525050815260200190600101906117cd565b50505050905060005b8151811015611968576000838661182591906129fe565b905060008683876118369190612fc2565b611840919061321d565b9050600060038281548110611858576118576131ee565b5b9060005260206000200160009054906101000a900473ffffffffffffffffffffffffffffffffffffffff16905082601660006003858154811061189e5761189d6131ee565b5b9060005260206000200160009054906101000a900473ffffffffffffffffffffffffffffffffffffffff1673ffffffffffffffffffffffffffffffffffffffff1673ffffffffffffffffffffffffffffffffffffffff16815260200190815260200160002060008282546119129190612fc2565b925050819055507fd3a5768bf837a0d84272319dd7ba5792dc8336cebc8ffc2979712c7aebd6e298818460405161194a929190612d0a565b60405180910390a150505080806119609061324e565b91505061180e565b505080806119759061324e565b9150506116f4565b50600067ffffffffffffffff8111156119995761199861236d565b5b6040519080825280602002602001820160405280156119c75781602001602082028036833780820191505090505b50600390805190602001906119dd92919061223c565b50600b54600c541415611e2c576004601b60146101000a81548160ff02191690836004811115611a1057611a0f612815565b5b0217905550826005819055506019600081548110611a3157611a306131ee565b5b9060005260206000200160009054906101000a900473ffffffffffffffffffffffffffffffffffffffff16601b60006101000a81548173ffffffffffffffffffffffffffffffffffffffff021916908373ffffffffffffffffffffffffffffffffffffffff1602179055506000601660006019600081548110611ab757611ab66131ee565b5b9060005260206000200160009054906101000a900473ffffffffffffffffffffffffffffffffffffffff1673ffffffffffffffffffffffffffffffffffffffff1673ffffffffffffffffffffffffffffffffffffffff1681526020019081526020016000205490506000600190505b601980549050811015611ccb57816016600060198481548110611b4c57611b4b6131ee565b5b9060005260206000200160009054906101000a900473ffffffffffffffffffffffffffffffffffffffff1673ffffffffffffffffffffffffffffffffffffffff1673ffffffffffffffffffffffffffffffffffffffff168152602001908152602001600020541115611cb8576016600060198381548110611bd057611bcf6131ee565b5b9060005260206000200160009054906101000a900473ffffffffffffffffffffffffffffffffffffffff1673ffffffffffffffffffffffffffffffffffffffff1673ffffffffffffffffffffffffffffffffffffffff16815260200190815260200160002054915060198181548110611c4c57611c4b6131ee565b5b9060005260206000200160009054906101000a900473ffffffffffffffffffffffffffffffffffffffff16601b60006101000a81548173ffffffffffffffffffffffffffffffffffffffff021916908373ffffffffffffffffffffffffffffffffffffffff1602179055505b8080611cc39061324e565b915050611b26565b50601b60009054906101000a900473ffffffffffffffffffffffffffffffffffffffff1673ffffffffffffffffffffffffffffffffffffffff166108fc6017600060018152602001908152602001600020549081150290604051600060405180830381858888f19350505050158015611d48573d6000803e3d6000fd5b507f96594889859358b036c15d31e598613d775998a475692aedee49568f444bea85600c54604051611d7a91906122fc565b60405180910390a17fcb4b24a99cfd8e8fb2105a9a3e7f714baac78277d64f113e4edee1dceafbdecb604051611daf906132e3565b60405180910390a17fd4ba6fec82d9b0e8ffe50b9fed9e4be3b25c984ce1e0e016405a5528726e8a2c601b60009054906101000a900473ffffffffffffffffffffffffffffffffffffffff16601760006001815260200190815260200160002054604051611e1e929190613358565b60405180910390a150611eb2565b6001600c6000828254611e3f9190612fc2565b92505081905550426009819055506001601b60146101000a81548160ff02191690836004811115611e7357611e72612815565b5b02179055507f33a701182892fd888ed152ca2ac23771a32e814469b7cd255965471e1af3a659600c54604051611ea991906122fc565b60405180910390a15b5050505050565b611ec1612234565b73ffffffffffffffffffffffffffffffffffffffff16611edf610f99565b73ffffffffffffffffffffffffffffffffffffffff1614611f35576040517f08c379a0000000000000000000000000000000000000000000000000000000008152600401611f2c906133cd565b60405180910390fd5b565b60008060009054906101000a900473ffffffffffffffffffffffffffffffffffffffff169050816000806101000a81548173ffffffffffffffffffffffffffffffffffffffff021916908373ffffffffffffffffffffffffffffffffffffffff1602179055508173ffffffffffffffffffffffffffffffffffffffff168173ffffffffffffffffffffffffffffffffffffffff167f8be0079c531659141344cd1fd0a4f28419497f9722a3daafe3b4186f6b6457e060405160405180910390a35050565b6000806015600060105481526020019081526020016000206000600c54815260200190815260200160002060008473ffffffffffffffffffffffffffffffffffffffff1673ffffffffffffffffffffffffffffffffffffffff168152602001908152602001600020805480602002602001604051908101604052809291908181526020016000905b828210156120bb5783829060005260206000200160405180602001604052908160008201548152505081526020019060010190612083565b5050505090506000805b825181101561210d578281815181106120e1576120e06131ee565b5b602002602001015160000151826120f89190612fc2565b915080806121059061324e565b9150506120c5565b5080600d5461211c91906129fe565b92505050919050565b600061212f611eb9565b600160009054906101000a900473ffffffffffffffffffffffffffffffffffffffff1673ffffffffffffffffffffffffffffffffffffffff16635d3b1d30601e54601d60009054906101000a900467ffffffffffffffff16601f60009054906101000a900461ffff16601f60069054906101000a900463ffffffff16601f60029054906101000a900463ffffffff166040518663ffffffff1660e01b81526004016121de95949392919061344c565b602060405180830381600087803b1580156121f857600080fd5b505af115801561220c573d6000803e3d6000fd5b505050506040513d601f19601f820116820180604052508101906122309190612a47565b5090565b600033905090565b8280548282559060005260206000209081019282156122b5579160200282015b828111156122b45782518260006101000a81548173ffffffffffffffffffffffffffffffffffffffff021916908373ffffffffffffffffffffffffffffffffffffffff1602179055509160200191906001019061225c565b5b5090506122c291906122c6565b5090565b5b808211156122df5760008160009055506001016122c7565b5090565b6000819050919050565b6122f6816122e3565b82525050565b600060208201905061231160008301846122ed565b92915050565b6000604051905090565b600080fd5b600080fd5b612334816122e3565b811461233f57600080fd5b50565b6000813590506123518161232b565b92915050565b600080fd5b6000601f19601f8301169050919050565b7f4e487b7100000000000000000000000000000000000000000000000000000000600052604160045260246000fd5b6123a58261235c565b810181811067ffffffffffffffff821117156123c4576123c361236d565b5b80604052505050565b60006123d7612317565b90506123e3828261239c565b919050565b600067ffffffffffffffff8211156124035761240261236d565b5b602082029050602081019050919050565b600080fd5b600061242c612427846123e8565b6123cd565b9050808382526020820190506020840283018581111561244f5761244e612414565b5b835b8181101561247857806124648882612342565b845260208401935050602081019050612451565b5050509392505050565b600082601f83011261249757612496612357565b5b81356124a7848260208601612419565b91505092915050565b600080604083850312156124c7576124c6612321565b5b60006124d585828601612342565b925050602083013567ffffffffffffffff8111156124f6576124f5612326565b5b61250285828601612482565b9150509250929050565b600080fd5b60008083601f84011261252757612526612357565b5b8235905067ffffffffffffffff8111156125445761254361250c565b5b6020830191508360018202830111156125605761255f612414565b5b9250929050565b6000806020838503121561257e5761257d612321565b5b600083013567ffffffffffffffff81111561259c5761259b612326565b5b6125a885828601612511565b92509250509250929050565b60008115159050919050565b6125c9816125b4565b82525050565b60006020820190506125e460008301846125c0565b92915050565b6000819050919050565b6125fd816125ea565b82525050565b600060208201905061261860008301846125f4565b92915050565b600081519050919050565b600082825260208201905092915050565b60005b8381101561265857808201518184015260208101905061263d565b83811115612667576000848401525b50505050565b60006126788261261e565b6126828185612629565b935061269281856020860161263a565b61269b8161235c565b840191505092915050565b60006040820190506126bb60008301856125c0565b81810360208301526126cd818461266d565b90509392505050565b600081519050919050565b600082825260208201905092915050565b6000819050602082019050919050565b600073ffffffffffffffffffffffffffffffffffffffff82169050919050565b600061272d82612702565b9050919050565b61273d81612722565b82525050565b600061274f8383612734565b60208301905092915050565b6000602082019050919050565b6000612773826126d6565b61277d81856126e1565b9350612788836126f2565b8060005b838110156127b95781516127a08882612743565b97506127ab8361275b565b92505060018101905061278c565b5085935050505092915050565b600060208201905081810360008301526127e08184612768565b905092915050565b6000602082840312156127fe576127fd612321565b5b600061280c84828501612342565b91505092915050565b7f4e487b7100000000000000000000000000000000000000000000000000000000600052602160045260246000fd5b6005811061285557612854612815565b5b50565b600081905061286682612844565b919050565b600061287682612858565b9050919050565b6128868161286b565b82525050565b60006020820190506128a1600083018461287d565b92915050565b60006128b282612702565b9050919050565b6128c2816128a7565b82525050565b60006020820190506128dd60008301846128b9565b92915050565b6128ec816128a7565b81146128f757600080fd5b50565b600081359050612909816128e3565b92915050565b6000806040838503121561292657612925612321565b5b600061293485828601612342565b9250506020612945858286016128fa565b9150509250929050565b61295881612722565b82525050565b6000602082019050612973600083018461294f565b92915050565b60006020828403121561298f5761298e612321565b5b600061299d848285016128fa565b91505092915050565b60006040820190506129bb60008301856128b9565b6129c860208301846128b9565b9392505050565b7f4e487b7100000000000000000000000000000000000000000000000000000000600052601160045260246000fd5b6000612a09826122e3565b9150612a14836122e3565b925082821015612a2757612a266129cf565b5b828203905092915050565b600081519050612a418161232b565b92915050565b600060208284031215612a5d57612a5c612321565b5b6000612a6b84828501612a32565b91505092915050565b600069ffffffffffffffffffff82169050919050565b612a9381612a74565b8114612a9e57600080fd5b50565b600081519050612ab081612a8a565b92915050565b6000819050919050565b612ac981612ab6565b8114612ad457600080fd5b50565b600081519050612ae681612ac0565b92915050565b600080600080600060a08688031215612b0857612b07612321565b5b6000612b1688828901612aa1565b9550506020612b2788828901612ad7565b9450506040612b3888828901612a32565b9350506060612b4988828901612a32565b9250506080612b5a88828901612aa1565b9150509295509295909350565b6000612b72826122e3565b9150612b7d836122e3565b9250817fffffffffffffffffffffffffffffffffffffffffffffffffffffffffffffffff0483118215151615612bb657612bb56129cf565b5b828202905092915050565b7f4e487b7100000000000000000000000000000000000000000000000000000000600052601260045260246000fd5b6000612bfb826122e3565b9150612c06836122e3565b925082612c1657612c15612bc1565b5b828204905092915050565b600082825260208201905092915050565b7f596f752061726520746f6f206c61746520666f72207468697320726f756e6400600082015250565b6000612c68601f83612c21565b9150612c7382612c32565b602082019050919050565b60006020820190508181036000830152612c9781612c5b565b9050919050565b7f596f7520646f6e2774206861766520656e6f7567682062657473206c65667400600082015250565b6000612cd4601f83612c21565b9150612cdf82612c9e565b602082019050919050565b60006020820190508181036000830152612d0381612cc7565b9050919050565b6000604082019050612d1f60008301856128b9565b612d2c60208301846122ed565b9392505050565b7f596f75206172656e277420746865726520796574210000000000000000000000600082015250565b6000612d69601583612c21565b9150612d7482612d33565b602082019050919050565b60006020820190508181036000830152612d9881612d5c565b9050919050565b7f43616c63756c6174696e672077696e6e65720000000000000000000000000000600082015250565b6000612dd5601283612c21565b9150612de082612d9f565b602082019050919050565b60006020820190508181036000830152612e0481612dc8565b9050919050565b6000819050919050565b6000819050919050565b6000612e3a612e35612e3084612e0b565b612e15565b6122e3565b9050919050565b612e4a81612e1f565b82525050565b6000602082019050612e656000830184612e41565b92915050565b612e74816125b4565b8114612e7f57600080fd5b50565b600081519050612e9181612e6b565b92915050565b600060208284031215612ead57612eac612321565b5b6000612ebb84828501612e82565b91505092915050565b7f43616e2774206a6f696e20612067616d6520616674657220697420686173207360008201527f7461727465640000000000000000000000000000000000000000000000000000602082015250565b6000612f20602683612c21565b9150612f2b82612ec4565b604082019050919050565b60006020820190508181036000830152612f4f81612f13565b9050919050565b7f4e6f7420656e6f75676820455448000000000000000000000000000000000000600082015250565b6000612f8c600e83612c21565b9150612f9782612f56565b602082019050919050565b60006020820190508181036000830152612fbb81612f7f565b9050919050565b6000612fcd826122e3565b9150612fd8836122e3565b9250827fffffffffffffffffffffffffffffffffffffffffffffffffffffffffffffffff0382111561300d5761300c6129cf565b5b828201905092915050565b7f43616e27742073746172742061206e65772067616d6500000000000000000000600082015250565b600061304e601683612c21565b915061305982613018565b602082019050919050565b6000602082019050818103600083015261307d81613041565b9050919050565b7f4f70656e00000000000000000000000000000000000000000000000000000000600082015250565b60006130ba600483612c21565b91506130c582613084565b602082019050919050565b600060208201905081810360008301526130e9816130ad565b9050919050565b7f4f776e61626c653a206e6577206f776e657220697320746865207a65726f206160008201527f6464726573730000000000000000000000000000000000000000000000000000602082015250565b600061314c602683612c21565b9150613157826130f0565b604082019050919050565b6000602082019050818103600083015261317b8161313f565b9050919050565b7f72616e646f6d20776f726473206e6f7420666f756e6400000000000000000000600082015250565b60006131b8601683612c21565b91506131c382613182565b602082019050919050565b600060208201905081810360008301526131e7816131ab565b9050919050565b7f4e487b7100000000000000000000000000000000000000000000000000000000600052603260045260246000fd5b6000613228826122e3565b9150613233836122e3565b92508261324357613242612bc1565b5b828206905092915050565b6000613259826122e3565b91507fffffffffffffffffffffffffffffffffffffffffffffffffffffffffffffffff82141561328c5761328b6129cf565b5b600182019050919050565b7f436c6f7365640000000000000000000000000000000000000000000000000000600082015250565b60006132cd600683612c21565b91506132d882613297565b602082019050919050565b600060208201905081810360008301526132fc816132c0565b9050919050565b600061331e61331961331484612702565b612e15565b612702565b9050919050565b600061333082613303565b9050919050565b600061334282613325565b9050919050565b61335281613337565b82525050565b600060408201905061336d6000830185613349565b61337a60208301846122ed565b9392505050565b7f4f776e61626c653a2063616c6c6572206973206e6f7420746865206f776e6572600082015250565b60006133b7602083612c21565b91506133c282613381565b602082019050919050565b600060208201905081810360008301526133e6816133aa565b9050919050565b600067ffffffffffffffff82169050919050565b61340a816133ed565b82525050565b600061ffff82169050919050565b61342781613410565b82525050565b600063ffffffff82169050919050565b6134468161342d565b82525050565b600060a08201905061346160008301886125f4565b61346e6020830187613401565b61347b604083018661341e565b613488606083018561343d565b613495608083018461343d565b969550505050505056fea26469706673582212204cb2f2c043c83057d2ef055a8fde6a6a05ac37c3a82ad3c2923a8192aefa56fd64736f6c63430008090033",
  "linkReferences": {},
  "deployedLinkReferences": {}
}