{
  "_format": "hh-sol-artifact-1",
  "contractName": "cryptoJengaV6",
  "sourceName": "contracts/cryptoJenga_v6.sol",
  "abi": [
    {
      "inputs": [
        {
          "internalType": "uint256",
          "name": "_USDTicketPrice",
          "type": "uint256"
        },
        {
          "internalType": "uint256",
          "name": "_roundDuration",
          "type": "uint256"
        },
        {
          "internalType": "uint256",
          "name": "_totalRounds",
          "type": "uint256"
        },
        {
          "internalType": "uint256",
          "name": "_maxBets",
          "type": "uint256"
        },
        {
          "internalType": "string",
          "name": "_gameCode",
          "type": "string"
        },
        {
          "internalType": "contract GameFactoryInterface",
          "name": "gameFactoryAddress",
          "type": "address"
        }
      ],
      "stateMutability": "nonpayable",
      "type": "constructor"
    },
    {
      "inputs": [
        {
          "internalType": "address",
          "name": "have",
          "type": "address"
        },
        {
          "internalType": "address",
          "name": "want",
          "type": "address"
        }
      ],
      "name": "OnlyCoordinatorCanFulfill",
      "type": "error"
    },
    {
      "anonymous": false,
      "inputs": [
        {
          "indexed": false,
          "internalType": "address",
          "name": "_player",
          "type": "address"
        },
        {
          "indexed": false,
          "internalType": "uint256",
          "name": "_currentRoundBetCount",
          "type": "uint256"
        },
        {
          "indexed": false,
          "internalType": "uint256",
          "name": "_remainingBets",
          "type": "uint256"
        }
      ],
      "name": "BetMade",
      "type": "event"
    },
    {
      "anonymous": false,
      "inputs": [
        {
          "indexed": false,
          "internalType": "address",
          "name": "_gameWinner",
          "type": "address"
        },
        {
          "indexed": false,
          "internalType": "uint256",
          "name": "amountWon",
          "type": "uint256"
        }
      ],
      "name": "GameEnded",
      "type": "event"
    },
    {
      "anonymous": false,
      "inputs": [
        {
          "indexed": false,
          "internalType": "string",
          "name": "_currentState",
          "type": "string"
        }
      ],
      "name": "GameState",
      "type": "event"
    },
    {
      "anonymous": false,
      "inputs": [
        {
          "indexed": true,
          "internalType": "address",
          "name": "previousOwner",
          "type": "address"
        },
        {
          "indexed": true,
          "internalType": "address",
          "name": "newOwner",
          "type": "address"
        }
      ],
      "name": "OwnershipTransferred",
      "type": "event"
    },
    {
      "anonymous": false,
      "inputs": [
        {
          "indexed": false,
          "internalType": "address",
          "name": "_joinedPlayer",
          "type": "address"
        }
      ],
      "name": "PlayerJoined",
      "type": "event"
    },
    {
      "anonymous": false,
      "inputs": [
        {
          "indexed": false,
          "internalType": "uint256",
          "name": "requestId",
          "type": "uint256"
        }
      ],
      "name": "RequestedRandomness",
      "type": "event"
    },
    {
      "anonymous": false,
      "inputs": [
        {
          "indexed": false,
          "internalType": "uint256",
          "name": "_currentRoundNumber",
          "type": "uint256"
        }
      ],
      "name": "RevealEnded",
      "type": "event"
    },
    {
      "anonymous": false,
      "inputs": [
        {
          "indexed": false,
          "internalType": "uint256",
          "name": "_currentRoundNumber",
          "type": "uint256"
        }
      ],
      "name": "RevealStarted",
      "type": "event"
    },
    {
      "anonymous": false,
      "inputs": [
        {
          "indexed": false,
          "internalType": "uint256",
          "name": "_currentRoundNumber",
          "type": "uint256"
        }
      ],
      "name": "RoundEnded",
      "type": "event"
    },
    {
      "anonymous": false,
      "inputs": [
        {
          "indexed": false,
          "internalType": "uint256",
          "name": "_currentRoundNumber",
          "type": "uint256"
        }
      ],
      "name": "RoundStarted",
      "type": "event"
    },
    {
      "anonymous": false,
      "inputs": [
        {
          "indexed": false,
          "internalType": "address",
          "name": "_roundWinner",
          "type": "address"
        },
        {
          "indexed": false,
          "internalType": "uint256",
          "name": "_rewardAmount",
          "type": "uint256"
        }
      ],
      "name": "RoundWinner",
      "type": "event"
    },
    {
      "anonymous": false,
      "inputs": [
        {
          "indexed": false,
          "internalType": "address",
          "name": "_testAddress",
          "type": "address"
        }
      ],
      "name": "Test",
      "type": "event"
    },
    {
      "inputs": [],
      "name": "CurrentRound",
      "outputs": [
        {
          "internalType": "uint256",
          "name": "",
          "type": "uint256"
        }
      ],
      "stateMutability": "view",
      "type": "function"
    },
    {
      "inputs": [
        {
          "internalType": "uint256",
          "name": "",
          "type": "uint256"
        }
      ],
      "name": "GameFeePool",
      "outputs": [
        {
          "internalType": "uint256",
          "name": "",
          "type": "uint256"
        }
      ],
      "stateMutability": "view",
      "type": "function"
    },
    {
      "inputs": [
        {
          "internalType": "uint256",
          "name": "",
          "type": "uint256"
        }
      ],
      "name": "GameWinningPool",
      "outputs": [
        {
          "internalType": "uint256",
          "name": "",
          "type": "uint256"
        }
      ],
      "stateMutability": "view",
      "type": "function"
    },
    {
      "inputs": [],
      "name": "MaxBets",
      "outputs": [
        {
          "internalType": "uint256",
          "name": "",
          "type": "uint256"
        }
      ],
      "stateMutability": "view",
      "type": "function"
    },
    {
      "inputs": [],
      "name": "RoundDuration",
      "outputs": [
        {
          "internalType": "uint256",
          "name": "",
          "type": "uint256"
        }
      ],
      "stateMutability": "view",
      "type": "function"
    },
    {
      "inputs": [],
      "name": "RoundStartTime",
      "outputs": [
        {
          "internalType": "uint256",
          "name": "",
          "type": "uint256"
        }
      ],
      "stateMutability": "view",
      "type": "function"
    },
    {
      "inputs": [],
      "name": "TicketPrice",
      "outputs": [
        {
          "internalType": "uint256",
          "name": "",
          "type": "uint256"
        }
      ],
      "stateMutability": "view",
      "type": "function"
    },
    {
      "inputs": [],
      "name": "TotalRounds",
      "outputs": [
        {
          "internalType": "uint256",
          "name": "",
          "type": "uint256"
        }
      ],
      "stateMutability": "view",
      "type": "function"
    },
    {
      "inputs": [],
      "name": "USDTicketPrice",
      "outputs": [
        {
          "internalType": "uint256",
          "name": "",
          "type": "uint256"
        }
      ],
      "stateMutability": "view",
      "type": "function"
    },
    {
      "inputs": [
        {
          "internalType": "uint256",
          "name": "betSize",
          "type": "uint256"
        }
      ],
      "name": "bet",
      "outputs": [],
      "stateMutability": "nonpayable",
      "type": "function"
    },
    {
      "inputs": [
        {
          "internalType": "address",
          "name": "",
          "type": "address"
        }
      ],
      "name": "blocksWon",
      "outputs": [
        {
          "internalType": "uint256",
          "name": "",
          "type": "uint256"
        }
      ],
      "stateMutability": "view",
      "type": "function"
    },
    {
      "inputs": [
        {
          "internalType": "bytes",
          "name": "",
          "type": "bytes"
        }
      ],
      "name": "checkUpkeep",
      "outputs": [
        {
          "internalType": "bool",
          "name": "upkeepNeeded",
          "type": "bool"
        },
        {
          "internalType": "bytes",
          "name": "",
          "type": "bytes"
        }
      ],
      "stateMutability": "view",
      "type": "function"
    },
    {
      "inputs": [],
      "name": "chooseWinnerForCurrentRound",
      "outputs": [],
      "stateMutability": "nonpayable",
      "type": "function"
    },
    {
      "inputs": [],
      "name": "count",
      "outputs": [
        {
          "internalType": "uint256",
          "name": "",
          "type": "uint256"
        }
      ],
      "stateMutability": "view",
      "type": "function"
    },
    {
      "inputs": [],
      "name": "finalBalance",
      "outputs": [
        {
          "internalType": "uint256",
          "name": "",
          "type": "uint256"
        }
      ],
      "stateMutability": "view",
      "type": "function"
    },
    {
      "inputs": [],
      "name": "gameCode",
      "outputs": [
        {
          "internalType": "string",
          "name": "",
          "type": "string"
        }
      ],
      "stateMutability": "view",
      "type": "function"
    },
    {
      "inputs": [],
      "name": "gameId",
      "outputs": [
        {
          "internalType": "uint256",
          "name": "",
          "type": "uint256"
        }
      ],
      "stateMutability": "view",
      "type": "function"
    },
    {
      "inputs": [],
      "name": "gameWinner",
      "outputs": [
        {
          "internalType": "address payable",
          "name": "",
          "type": "address"
        }
      ],
      "stateMutability": "view",
      "type": "function"
    },
    {
      "inputs": [],
      "name": "game_state",
      "outputs": [
        {
          "internalType": "enum cryptoJengaV6.GAME_STATE",
          "name": "",
          "type": "uint8"
        }
      ],
      "stateMutability": "view",
      "type": "function"
    },
    {
      "inputs": [],
      "name": "getContractBalance",
      "outputs": [
        {
          "internalType": "uint256",
          "name": "",
          "type": "uint256"
        }
      ],
      "stateMutability": "view",
      "type": "function"
    },
    {
      "inputs": [],
      "name": "getGameState",
      "outputs": [
        {
          "internalType": "enum cryptoJengaV6.GAME_STATE",
          "name": "",
          "type": "uint8"
        }
      ],
      "stateMutability": "view",
      "type": "function"
    },
    {
      "inputs": [],
      "name": "getLinkBalance",
      "outputs": [
        {
          "internalType": "uint256",
          "name": "",
          "type": "uint256"
        }
      ],
      "stateMutability": "view",
      "type": "function"
    },
    {
      "inputs": [],
      "name": "getNumberofPlayers",
      "outputs": [
        {
          "internalType": "uint256",
          "name": "",
          "type": "uint256"
        }
      ],
      "stateMutability": "view",
      "type": "function"
    },
    {
      "inputs": [],
      "name": "getPlayerAddresses",
      "outputs": [
        {
          "internalType": "address payable[]",
          "name": "",
          "type": "address[]"
        }
      ],
      "stateMutability": "view",
      "type": "function"
    },
    {
      "inputs": [],
      "name": "getRoundRemainingTime",
      "outputs": [
        {
          "internalType": "uint256",
          "name": "",
          "type": "uint256"
        }
      ],
      "stateMutability": "view",
      "type": "function"
    },
    {
      "inputs": [
        {
          "internalType": "address",
          "name": "playerAddress",
          "type": "address"
        }
      ],
      "name": "getTokensLeft",
      "outputs": [
        {
          "internalType": "uint256",
          "name": "",
          "type": "uint256"
        }
      ],
      "stateMutability": "view",
      "type": "function"
    },
    {
      "inputs": [],
      "name": "getUSDTicketPrice",
      "outputs": [
        {
          "internalType": "uint256",
          "name": "",
          "type": "uint256"
        }
      ],
      "stateMutability": "view",
      "type": "function"
    },
    {
      "inputs": [],
      "name": "isGameStateOpen",
      "outputs": [
        {
          "internalType": "bool",
          "name": "",
          "type": "bool"
        }
      ],
      "stateMutability": "nonpayable",
      "type": "function"
    },
    {
      "inputs": [
        {
          "internalType": "address",
          "name": "playerAddress",
          "type": "address"
        }
      ],
      "name": "isPlayerJoined",
      "outputs": [
        {
          "internalType": "bool",
          "name": "",
          "type": "bool"
        }
      ],
      "stateMutability": "view",
      "type": "function"
    },
    {
      "inputs": [],
      "name": "joinGame",
      "outputs": [],
      "stateMutability": "payable",
      "type": "function"
    },
    {
      "inputs": [],
      "name": "owner",
      "outputs": [
        {
          "internalType": "address",
          "name": "",
          "type": "address"
        }
      ],
      "stateMutability": "view",
      "type": "function"
    },
    {
      "inputs": [
        {
          "internalType": "uint256",
          "name": "",
          "type": "uint256"
        }
      ],
      "name": "participants",
      "outputs": [
        {
          "internalType": "address payable",
          "name": "",
          "type": "address"
        }
      ],
      "stateMutability": "view",
      "type": "function"
    },
    {
      "inputs": [
        {
          "internalType": "bytes",
          "name": "",
          "type": "bytes"
        }
      ],
      "name": "performUpkeep",
      "outputs": [],
      "stateMutability": "nonpayable",
      "type": "function"
    },
    {
      "inputs": [
        {
          "internalType": "uint256",
          "name": "",
          "type": "uint256"
        }
      ],
      "name": "players",
      "outputs": [
        {
          "internalType": "address payable",
          "name": "",
          "type": "address"
        }
      ],
      "stateMutability": "view",
      "type": "function"
    },
    {
      "inputs": [],
      "name": "poolRewards",
      "outputs": [
        {
          "internalType": "uint256",
          "name": "",
          "type": "uint256"
        }
      ],
      "stateMutability": "view",
      "type": "function"
    },
    {
      "inputs": [],
      "name": "randomness",
      "outputs": [
        {
          "internalType": "uint256",
          "name": "",
          "type": "uint256"
        }
      ],
      "stateMutability": "view",
      "type": "function"
    },
    {
      "inputs": [
        {
          "internalType": "uint256",
          "name": "requestId",
          "type": "uint256"
        },
        {
          "internalType": "uint256[]",
          "name": "randomWords",
          "type": "uint256[]"
        }
      ],
      "name": "rawFulfillRandomWords",
      "outputs": [],
      "stateMutability": "nonpayable",
      "type": "function"
    },
    {
      "inputs": [],
      "name": "renounceOwnership",
      "outputs": [],
      "stateMutability": "nonpayable",
      "type": "function"
    },
    {
      "inputs": [
        {
          "internalType": "uint256",
          "name": "_TotalRounds",
          "type": "uint256"
        },
        {
          "internalType": "uint256",
          "name": "_MaxBets",
          "type": "uint256"
        },
        {
          "internalType": "uint256",
          "name": "_RoundDuration",
          "type": "uint256"
        },
        {
          "internalType": "uint256",
          "name": "_USDTicketPrice",
          "type": "uint256"
        }
      ],
      "name": "resetGameState",
      "outputs": [],
      "stateMutability": "nonpayable",
      "type": "function"
    },
    {
      "inputs": [
        {
          "internalType": "uint256",
          "name": "",
          "type": "uint256"
        }
      ],
      "name": "s_randomWords",
      "outputs": [
        {
          "internalType": "uint256",
          "name": "",
          "type": "uint256"
        }
      ],
      "stateMutability": "view",
      "type": "function"
    },
    {
      "inputs": [],
      "name": "s_requestId",
      "outputs": [
        {
          "internalType": "uint256",
          "name": "",
          "type": "uint256"
        }
      ],
      "stateMutability": "view",
      "type": "function"
    },
    {
      "inputs": [],
      "name": "startGame",
      "outputs": [],
      "stateMutability": "nonpayable",
      "type": "function"
    },
    {
      "inputs": [],
      "name": "testUpkeepCounter",
      "outputs": [
        {
          "internalType": "uint256",
          "name": "",
          "type": "uint256"
        }
      ],
      "stateMutability": "view",
      "type": "function"
    },
    {
      "inputs": [
        {
          "internalType": "address",
          "name": "newOwner",
          "type": "address"
        }
      ],
      "name": "transferOwnership",
      "outputs": [],
      "stateMutability": "nonpayable",
      "type": "function"
    },
    {
      "inputs": [],
      "name": "vrfCalls",
      "outputs": [
        {
          "internalType": "uint256",
          "name": "",
          "type": "uint256"
        }
      ],
      "stateMutability": "view",
      "type": "function"
    },
    {
      "inputs": [],
      "name": "withdrawEth",
      "outputs": [],
      "stateMutability": "nonpayable",
      "type": "function"
    },
    {
      "inputs": [
        {
          "internalType": "uint256",
          "name": "amount",
          "type": "uint256"
        },
        {
          "internalType": "address",
          "name": "to",
          "type": "address"
        }
      ],
      "name": "withdrawLINK",
      "outputs": [],
      "stateMutability": "nonpayable",
      "type": "function"
    }
  ],
  "bytecode": "0x60a060405273326c977e6efc84e512bb9c30f76e30c160ed06fb600760006101000a81548173ffffffffffffffffffffffffffffffffffffffff021916908373ffffffffffffffffffffffffffffffffffffffff1602179055506000600e556000600f556000601055600060135573d4a33860578de61dbabdc8bfdb98fd742fa7028e601560006101000a81548173ffffffffffffffffffffffffffffffffffffffff021916908373ffffffffffffffffffffffffffffffffffffffff160217905550732ca8e0c643bde4c2e08ab1fa0da3401adad7734d601660006101000a81548173ffffffffffffffffffffffffffffffffffffffff021916908373ffffffffffffffffffffffffffffffffffffffff1602179055507f79d3d8832d904592c0bf9818b621522c988bb8b0c05cdc3b15aea1b6e8db0c1560001b601755620f42406019556048602460016101000a81548167ffffffffffffffff021916908367ffffffffffffffff1602179055506003602460096101000a81548161ffff021916908361ffff16021790555060026024600b6101000a81548163ffffffff021916908363ffffffff16021790555062030d406024600f6101000a81548163ffffffff021916908363ffffffff160217905550348015620001e057600080fd5b50604051620048e1380380620048e1833981810160405281019062000206919062000824565b601660009054906101000a900473ffffffffffffffffffffffffffffffffffffffff168073ffffffffffffffffffffffffffffffffffffffff1660808173ffffffffffffffffffffffffffffffffffffffff1681525050506200027e620002726200045760201b60201c565b6200045f60201b60201c565b85600281905550601560009054906101000a900473ffffffffffffffffffffffffffffffffffffffff16600560006101000a81548173ffffffffffffffffffffffffffffffffffffffff021916908373ffffffffffffffffffffffffffffffffffffffff1602179055506000602460006101000a81548160ff02191690836004811115620003115762000310620008df565b5b021790555082600c81905550600760009054906101000a900473ffffffffffffffffffffffffffffffffffffffff16600660006101000a81548173ffffffffffffffffffffffffffffffffffffffff021916908373ffffffffffffffffffffffffffffffffffffffff1602179055508460098190555083600a81905550601660009054906101000a900473ffffffffffffffffffffffffffffffffffffffff16600160006101000a81548173ffffffffffffffffffffffffffffffffffffffff021916908373ffffffffffffffffffffffffffffffffffffffff16021790555080601860006101000a81548173ffffffffffffffffffffffffffffffffffffffff021916908373ffffffffffffffffffffffffffffffffffffffff16021790555081601490805190602001906200044a92919062000523565b5050505050505062000973565b600033905090565b60008060009054906101000a900473ffffffffffffffffffffffffffffffffffffffff169050816000806101000a81548173ffffffffffffffffffffffffffffffffffffffff021916908373ffffffffffffffffffffffffffffffffffffffff1602179055508173ffffffffffffffffffffffffffffffffffffffff168173ffffffffffffffffffffffffffffffffffffffff167f8be0079c531659141344cd1fd0a4f28419497f9722a3daafe3b4186f6b6457e060405160405180910390a35050565b82805462000531906200093d565b90600052602060002090601f016020900481019282620005555760008555620005a1565b82601f106200057057805160ff1916838001178555620005a1565b82800160010185558215620005a1579182015b82811115620005a057825182559160200191906001019062000583565b5b509050620005b09190620005b4565b5090565b5b80821115620005cf576000816000905550600101620005b5565b5090565b6000604051905090565b600080fd5b600080fd5b6000819050919050565b620005fc81620005e7565b81146200060857600080fd5b50565b6000815190506200061c81620005f1565b92915050565b600080fd5b600080fd5b6000601f19601f8301169050919050565b7f4e487b7100000000000000000000000000000000000000000000000000000000600052604160045260246000fd5b62000677826200062c565b810181811067ffffffffffffffff821117156200069957620006986200063d565b5b80604052505050565b6000620006ae620005d3565b9050620006bc82826200066c565b919050565b600067ffffffffffffffff821115620006df57620006de6200063d565b5b620006ea826200062c565b9050602081019050919050565b60005b8381101562000717578082015181840152602081019050620006fa565b8381111562000727576000848401525b50505050565b6000620007446200073e84620006c1565b620006a2565b90508281526020810184848401111562000763576200076262000627565b5b62000770848285620006f7565b509392505050565b600082601f83011262000790576200078f62000622565b5b8151620007a28482602086016200072d565b91505092915050565b600073ffffffffffffffffffffffffffffffffffffffff82169050919050565b6000620007d882620007ab565b9050919050565b6000620007ec82620007cb565b9050919050565b620007fe81620007df565b81146200080a57600080fd5b50565b6000815190506200081e81620007f3565b92915050565b60008060008060008060c08789031215620008445762000843620005dd565b5b60006200085489828a016200060b565b96505060206200086789828a016200060b565b95505060406200087a89828a016200060b565b94505060606200088d89828a016200060b565b935050608087015167ffffffffffffffff811115620008b157620008b0620005e2565b5b620008bf89828a0162000778565b92505060a0620008d289828a016200080d565b9150509295509295509295565b7f4e487b7100000000000000000000000000000000000000000000000000000000600052602160045260246000fd5b7f4e487b7100000000000000000000000000000000000000000000000000000000600052602260045260246000fd5b600060028204905060018216806200095657607f821691505b602082108114156200096d576200096c6200090e565b5b50919050565b608051613f4b6200099660003960008181610aa60152610afa0152613f4b6000f3fe6080604052600436106102885760003560e01c8063724d49241161015a578063c94f598b116100c1578063da5563821161007a578063da55638214610976578063e89e106a1461098d578063f2fde38b146109b8578063f6eaffc8146109e1578063f71d96cb14610a1e578063ff0ed8c014610a5b57610288565b8063c94f598b146108a9578063d089270e146108d4578063d4f77b1c146108ff578063d65ab5f214610909578063d7c81b5514610920578063d813679b1461094b57610288565b80638bc6beb2116101135780638bc6beb2146107bd5780638da5cb5b146107e8578063a0ef91df14610813578063a4c1fb5a1461082a578063b472f74d14610853578063b7d0628b1461087e57610288565b8063724d4924146106bd5780637365870b146106e857806374f724b2146107115780637cc01df61461073c5780638ae43b54146107675780638afb27a91461079257610288565b80634d05ad6b116101fe578063623adc7f116101b7578063623adc7f146105ac57806366654a71146105d55780636b5c7a75146106005780636e04ff0d1461063d5780636f9fb98a1461067b578063715018a6146106a657610288565b80634d05ad6b146104745780634f235926146104b157806350c5f975146104dc57806351a67f001461050757806353321c88146105445780635b1edec31461056f57610288565b806335c1d3491161025057806335c1d34914610362578063360131891461039f57806339dcbe53146103ca5780634585e33b146103f557806348a66e951461041e57806349a706ce1461044957610288565b806306661abd1461028d5780631567d567146102b85780631fe543e3146102e35780632129e25a1461030c5780633201f1e614610337575b600080fd5b34801561029957600080fd5b506102a2610a98565b6040516102af91906129dd565b60405180910390f35b3480156102c457600080fd5b506102cd610a9e565b6040516102da91906129dd565b60405180910390f35b3480156102ef57600080fd5b5061030a60048036038101906103059190612b91565b610aa4565b005b34801561031857600080fd5b50610321610b64565b60405161032e91906129dd565b60405180910390f35b34801561034357600080fd5b5061034c610b6a565b60405161035991906129dd565b60405180910390f35b34801561036e57600080fd5b5061038960048036038101906103849190612bed565b610b70565b6040516103969190612c5b565b60405180910390f35b3480156103ab57600080fd5b506103b4610baf565b6040516103c191906129dd565b60405180910390f35b3480156103d657600080fd5b506103df610bb5565b6040516103ec9190612cfe565b60405180910390f35b34801561040157600080fd5b5061041c60048036038101906104179190612d7b565b610c43565b005b34801561042a57600080fd5b50610433610cd1565b60405161044091906129dd565b60405180910390f35b34801561045557600080fd5b5061045e610cd7565b60405161046b91906129dd565b60405180910390f35b34801561048057600080fd5b5061049b60048036038101906104969190612e06565b610ce4565b6040516104a891906129dd565b60405180910390f35b3480156104bd57600080fd5b506104c6610d0e565b6040516104d39190612e4e565b60405180910390f35b3480156104e857600080fd5b506104f1610d4c565b6040516104fe91906129dd565b60405180910390f35b34801561051357600080fd5b5061052e60048036038101906105299190612bed565b610dfe565b60405161053b91906129dd565b60405180910390f35b34801561055057600080fd5b50610559610e16565b60405161056691906129dd565b60405180910390f35b34801561057b57600080fd5b5061059660048036038101906105919190612e06565b610f0e565b6040516105a391906129dd565b60405180910390f35b3480156105b857600080fd5b506105d360048036038101906105ce9190612e69565b610f26565b005b3480156105e157600080fd5b506105ea6111d0565b6040516105f791906129dd565b60405180910390f35b34801561060c57600080fd5b5061062760048036038101906106229190612e06565b6111d6565b6040516106349190612e4e565b60405180910390f35b34801561064957600080fd5b50610664600480360381019061065f9190612d7b565b61122c565b604051610672929190612f25565b60405180910390f35b34801561068757600080fd5b5061069061128a565b60405161069d91906129dd565b60405180910390f35b3480156106b257600080fd5b506106bb611292565b005b3480156106c957600080fd5b506106d26112a6565b6040516106df9190613013565b60405180910390f35b3480156106f457600080fd5b5061070f600480360381019061070a9190612bed565b611334565b005b34801561071d57600080fd5b506107266115d9565b60405161073391906129dd565b60405180910390f35b34801561074857600080fd5b506107516115df565b60405161075e91906129dd565b60405180910390f35b34801561077357600080fd5b5061077c6115e5565b60405161078991906130ac565b60405180910390f35b34801561079e57600080fd5b506107a76115f8565b6040516107b491906129dd565b60405180910390f35b3480156107c957600080fd5b506107d2611602565b6040516107df91906129dd565b60405180910390f35b3480156107f457600080fd5b506107fd611608565b60405161080a91906130d6565b60405180910390f35b34801561081f57600080fd5b50610828611631565b005b34801561083657600080fd5b50610851600480360381019061084c91906130f1565b611682565b005b34801561085f57600080fd5b5061086861173e565b60405161087591906129dd565b60405180910390f35b34801561088a57600080fd5b50610893611744565b6040516108a091906130ac565b60405180910390f35b3480156108b557600080fd5b506108be61175b565b6040516108cb9190612c5b565b60405180910390f35b3480156108e057600080fd5b506108e9611781565b6040516108f691906129dd565b60405180910390f35b610907611787565b005b34801561091557600080fd5b5061091e611a1b565b005b34801561092c57600080fd5b50610935611b83565b60405161094291906129dd565b60405180910390f35b34801561095757600080fd5b50610960611b89565b60405161096d91906129dd565b60405180910390f35b34801561098257600080fd5b5061098b611bcc565b005b34801561099957600080fd5b506109a2611db0565b6040516109af91906129dd565b60405180910390f35b3480156109c457600080fd5b506109df60048036038101906109da9190612e06565b611db6565b005b3480156109ed57600080fd5b50610a086004803603810190610a039190612bed565b611e3a565b604051610a1591906129dd565b60405180910390f35b348015610a2a57600080fd5b50610a456004803603810190610a409190612bed565b611e5e565b604051610a529190612c5b565b60405180910390f35b348015610a6757600080fd5b50610a826004803603810190610a7d9190612bed565b611e9d565b604051610a8f91906129dd565b60405180910390f35b600e5481565b60095481565b7f000000000000000000000000000000000000000000000000000000000000000073ffffffffffffffffffffffffffffffffffffffff163373ffffffffffffffffffffffffffffffffffffffff1614610b5657337f00000000000000000000000000000000000000000000000000000000000000006040517f1cf993f4000000000000000000000000000000000000000000000000000000008152600401610b4d929190613131565b60405180910390fd5b610b608282611eb4565b5050565b60125481565b600a5481565b60228181548110610b8057600080fd5b906000526020600020016000915054906101000a900473ffffffffffffffffffffffffffffffffffffffff1681565b60045481565b60148054610bc290613189565b80601f0160208091040260200160405190810160405280929190818152602001828054610bee90613189565b8015610c3b5780601f10610c1057610100808354040283529160200191610c3b565b820191906000526020600020905b815481529060010190602001808311610c1e57829003601f168201915b505050505081565b60016004811115610c5757610c56613035565b5b602460009054906101000a900460ff166004811115610c7957610c78613035565b5b148015610c94575060095460085442610c9291906131ea565b115b15610ccd576002602460006101000a81548160ff02191690836004811115610cbf57610cbe613035565b5b0217905550610ccc611bcc565b5b5050565b600c5481565b6000600380549050905090565b600080610cf033612731565b9050600081600c54610d0291906131ea565b90508092505050919050565b600060016004811115610d2457610d23613035565b5b602460009054906101000a900460ff166004811115610d4657610d45613035565b5b14905090565b6000600660009054906101000a900473ffffffffffffffffffffffffffffffffffffffff1673ffffffffffffffffffffffffffffffffffffffff166370a08231306040518263ffffffff1660e01b8152600401610da991906130d6565b60206040518083038186803b158015610dc157600080fd5b505afa158015610dd5573d6000803e3d6000fd5b505050506040513d601f19601f82011682018060405250810190610df99190613233565b905090565b60216020528060005260406000206000915090505481565b600080600560009054906101000a900473ffffffffffffffffffffffffffffffffffffffff1673ffffffffffffffffffffffffffffffffffffffff1663feaf968c6040518163ffffffff1660e01b815260040160a06040518083038186803b158015610e8157600080fd5b505afa158015610e95573d6000803e3d6000fd5b505050506040513d601f19601f82011682018060405250810190610eb991906132d8565b505050915050600081905060006a52b7d2dcc80cd2e4000000600254610edf9190613353565b90506000670de0b6b3a764000083610ef79190613353565b82610f0291906133dc565b90508094505050505090565b601f6020528060005260406000206000915090505481565b6000602460006101000a81548160ff02191690836004811115610f4c57610f4b613035565b5b021790555060005b6022805490508110156110d257600060228281548110610f7757610f7661340d565b5b9060005260206000200160009054906101000a900473ffffffffffffffffffffffffffffffffffffffff16905060005b600a5481101561102b57601e6000600f548152602001908152602001600020600082815260200190815260200160002060008373ffffffffffffffffffffffffffffffffffffffff1673ffffffffffffffffffffffffffffffffffffffff1681526020019081526020016000206000905580806110239061343c565b915050610fa7565b50602360008273ffffffffffffffffffffffffffffffffffffffff1673ffffffffffffffffffffffffffffffffffffffff16815260200190815260200160002060006101000a81549060ff0219169055601f60008273ffffffffffffffffffffffffffffffffffffffff1673ffffffffffffffffffffffffffffffffffffffff168152602001908152602001600020600090555080806110ca9061343c565b915050610f54565b50600060206000600f54815260200190815260200160002081905550600067ffffffffffffffff81111561110957611108612a4e565b5b6040519080825280602002602001820160405280156111375781602001602082028036833780820191505090505b506022908051906020019061114d92919061291d565b50600067ffffffffffffffff81111561116957611168612a4e565b5b6040519080825280602002602001820160405280156111975781602001602082028036833780820191505090505b50600390805190602001906111ad92919061291d565b5083600a8190555082600c81905550816009819055508060028190555050505050565b60025481565b6000602360008373ffffffffffffffffffffffffffffffffffffffff1673ffffffffffffffffffffffffffffffffffffffff16815260200190815260200160002060009054906101000a900460ff169050919050565b600060606001600481111561124457611243613035565b5b602460009054906101000a900460ff16600481111561126657611265613035565b5b14801561128157506009546008544261127f91906131ea565b115b91509250929050565b600047905090565b61129a6127d3565b6112a46000612851565b565b6060602280548060200260200160405190810160405280929190818152602001828054801561132a57602002820191906000526020600020905b8160009054906101000a900473ffffffffffffffffffffffffffffffffffffffff1673ffffffffffffffffffffffffffffffffffffffff16815260200190600101908083116112e0575b5050505050905090565b6001600481111561134857611347613035565b5b602460009054906101000a900460ff16600481111561136a57611369613035565b5b1461137457600080fd5b6009546008544261138591906131ea565b106113c5576040517f08c379a00000000000000000000000000000000000000000000000000000000081526004016113bc906134d1565b60405180910390fd5b60006113d033612731565b905060008282600c546113e391906131ea565b6113ed91906131ea565b90506000831015611433576040517f08c379a000000000000000000000000000000000000000000000000000000000815260040161142a9061353d565b60405180910390fd5b6000601e6000600f54815260200190815260200160002060006001600b5461145b91906131ea565b815260200190815260200160002060003373ffffffffffffffffffffffffffffffffffffffff1673ffffffffffffffffffffffffffffffffffffffff16815260200190815260200160002054905083816114b5919061355d565b601e6000600f54815260200190815260200160002060006001600b546114db91906131ea565b815260200190815260200160002060003373ffffffffffffffffffffffffffffffffffffffff1673ffffffffffffffffffffffffffffffffffffffff168152602001908152602001600020819055506003339080600181540180825580915050600190039060005260206000200160009091909190916101000a81548173ffffffffffffffffffffffffffffffffffffffff021916908373ffffffffffffffffffffffffffffffffffffffff1602179055507faef4e091ec4a3800e3135934210edcf6949b208c449c51fe586e99d1700ba2c03385836115bb919061355d565b846040516115cb939291906135b3565b60405180910390a150505050565b600b5481565b60105481565b602460009054906101000a900460ff1681565b6000600254905090565b60115481565b60008060009054906101000a900473ffffffffffffffffffffffffffffffffffffffff16905090565b6116396127d3565b3373ffffffffffffffffffffffffffffffffffffffff166108fc479081150290604051600060405180830381858888f1935050505015801561167f573d6000803e3d6000fd5b50565b61168a6127d3565b600660009054906101000a900473ffffffffffffffffffffffffffffffffffffffff1673ffffffffffffffffffffffffffffffffffffffff1663a9059cbb82846040518363ffffffff1660e01b81526004016116e79291906135ea565b602060405180830381600087803b15801561170157600080fd5b505af1158015611715573d6000803e3d6000fd5b505050506040513d601f19601f82011682018060405250810190611739919061363f565b505050565b60135481565b6000602460009054906101000a900460ff16905090565b601d60009054906101000a900473ffffffffffffffffffffffffffffffffffffffff1681565b60085481565b6000600481111561179b5761179a613035565b5b602460009054906101000a900460ff1660048111156117bd576117bc613035565b5b146117fd576040517f08c379a00000000000000000000000000000000000000000000000000000000081526004016117f4906136de565b60405180910390fd5b601954611808610e16565b61181291906131ea565b341015611854576040517f08c379a000000000000000000000000000000000000000000000000000000000815260040161184b9061374a565b60405180910390fd5b602360003373ffffffffffffffffffffffffffffffffffffffff1673ffffffffffffffffffffffffffffffffffffffff16815260200190815260200160002060009054906101000a900460ff16611961576001602360003373ffffffffffffffffffffffffffffffffffffffff1673ffffffffffffffffffffffffffffffffffffffff16815260200190815260200160002060006101000a81548160ff0219169083151502179055506022339080600181540180825580915050600190039060005260206000200160009091909190916101000a81548173ffffffffffffffffffffffffffffffffffffffff021916908373ffffffffffffffffffffffffffffffffffffffff1602179055505b60006064605a346119729190613353565b61197c91906133dc565b90508060206000600f54815260200190815260200160002060008282546119a3919061355d565b9250508190555080346119b691906131ea565b60216000600f54815260200190815260200160002060008282546119da919061355d565b925050819055507f31e760aa525306aba638a784082a013b6a1cc0a9a1789f3f22281c0453b10b1f33604051611a1091906130d6565b60405180910390a150565b60006004811115611a2f57611a2e613035565b5b602460009054906101000a900460ff166004811115611a5157611a50613035565b5b14611a91576040517f08c379a0000000000000000000000000000000000000000000000000000000008152600401611a88906137b6565b60405180910390fd5b600160228054905011611ad9576040517f08c379a0000000000000000000000000000000000000000000000000000000008152600401611ad090613848565b60405180910390fd5b6001602460006101000a81548160ff02191690836004811115611aff57611afe613035565b5b0217905550426008819055506001600b819055507fcb4b24a99cfd8e8fb2105a9a3e7f714baac78277d64f113e4edee1dceafbdecb604051611b40906138b4565b60405180910390a17f33a701182892fd888ed152ca2ac23771a32e814469b7cd255965471e1af3a659600b54604051611b7991906129dd565b60405180910390a1565b600f5481565b600042600954600854611b9c919061355d565b1015611bab5760009050611bc9565b42600954600854611bbc919061355d565b611bc691906131ea565b90505b90565b6000600160009054906101000a900473ffffffffffffffffffffffffffffffffffffffff1673ffffffffffffffffffffffffffffffffffffffff16635d3b1d30601754602460019054906101000a900467ffffffffffffffff16602460099054906101000a900461ffff166024600f9054906101000a900463ffffffff166024600b9054906101000a900463ffffffff166040518663ffffffff1660e01b8152600401611c7d95949392919061394c565b602060405180830381600087803b158015611c9757600080fd5b505af1158015611cab573d6000803e3d6000fd5b505050506040513d601f19601f82011682018060405250810190611ccf9190613233565b90507f5d7d0431c4991fcc9f63f03ad0ead4128b866a8ed115a818b6d87a3afedb726481604051611d0091906129dd565b60405180910390a17fcb4b24a99cfd8e8fb2105a9a3e7f714baac78277d64f113e4edee1dceafbdecb604051611d35906139eb565b60405180910390a17faa97d4a7b3afec5f55c25ca8593dde6929d4455fad650a16fa4334004293a6186001604051611d6d9190613a50565b60405180910390a17fd88c412b8067e5b328e01545d054149ce900e3b2929fb3f83abef44483fdf7156001604051611da59190613a50565b60405180910390a150565b600d5481565b611dbe6127d3565b600073ffffffffffffffffffffffffffffffffffffffff168173ffffffffffffffffffffffffffffffffffffffff161415611e2e576040517f08c379a0000000000000000000000000000000000000000000000000000000008152600401611e2590613add565b60405180910390fd5b611e3781612851565b50565b601c8181548110611e4a57600080fd5b906000526020600020016000915090505481565b60038181548110611e6e57600080fd5b906000526020600020016000915054906101000a900473ffffffffffffffffffffffffffffffffffffffff1681565b602080528060005260406000206000915090505481565b60026004811115611ec857611ec7613035565b5b602460009054906101000a900460ff166004811115611eea57611ee9613035565b5b14611f2a576040517f08c379a0000000000000000000000000000000000000000000000000000000008152600401611f2190613b49565b60405180910390fd5b60006003805490501180611f415750600a54600b54145b611f80576040517f08c379a0000000000000000000000000000000000000000000000000000000008152600401611f7790613bb5565b60405180910390fd5b600081600081518110611f9657611f9561340d565b5b602002602001015190506000600380549050111561212f576000600380549050905060008183611fc69190613bd5565b905060008183611fd6919061355d565b9050600083905060008390505b828110156121295760008582611ff99190613bd5565b90506001601f6000600384815481106120155761201461340d565b5b9060005260206000200160009054906101000a900473ffffffffffffffffffffffffffffffffffffffff1673ffffffffffffffffffffffffffffffffffffffff1673ffffffffffffffffffffffffffffffffffffffff1681526020019081526020016000206000828254612089919061355d565b925050819055507fd3a5768bf837a0d84272319dd7ba5792dc8336cebc8ffc2979712c7aebd6e298600382815481106120c5576120c461340d565b5b9060005260206000200160009054906101000a900473ffffffffffffffffffffffffffffffffffffffff16846040516120ff929190613c5b565b60405180910390a1828061211290613c84565b9350505080806121219061343c565b915050611fe3565b50505050505b600067ffffffffffffffff81111561214a57612149612a4e565b5b6040519080825280602002602001820160405280156121785781602001602082028036833780820191505090505b506003908051906020019061218e92919061291d565b50600a54600b5414156126a6576004602460006101000a81548160ff021916908360048111156121c1576121c0613035565b5b021790555060226000815481106121db576121da61340d565b5b9060005260206000200160009054906101000a900473ffffffffffffffffffffffffffffffffffffffff16601d60006101000a81548173ffffffffffffffffffffffffffffffffffffffff021916908373ffffffffffffffffffffffffffffffffffffffff1602179055506000601f600060226000815481106122615761226061340d565b5b9060005260206000200160009054906101000a900473ffffffffffffffffffffffffffffffffffffffff1673ffffffffffffffffffffffffffffffffffffffff1673ffffffffffffffffffffffffffffffffffffffff16815260200190815260200160002054905080601a819055506000600190505b602280549050811015612425576000602282815481106122fa576122f961340d565b5b9060005260206000200160009054906101000a900473ffffffffffffffffffffffffffffffffffffffff1690506000601f60008373ffffffffffffffffffffffffffffffffffffffff1673ffffffffffffffffffffffffffffffffffffffff168152602001908152602001600020549050838111156123b85780935081601d60006101000a81548173ffffffffffffffffffffffffffffffffffffffff021916908373ffffffffffffffffffffffffffffffffffffffff1602179055505b601f60008373ffffffffffffffffffffffffffffffffffffffff1673ffffffffffffffffffffffffffffffffffffffff16815260200190815260200160002054601a6000828254612409919061355d565b925050819055505050808061241d9061343c565b9150506122d7565b5080601a600082825461243891906131ea565b9250508190555060206000600f54815260200190815260200160002054601181905550600060206000600f548152602001908152602001600020819055506000601d60009054906101000a900473ffffffffffffffffffffffffffffffffffffffff1673ffffffffffffffffffffffffffffffffffffffff166011546040516124c090613cdf565b60006040518083038185875af1925050503d80600081146124fd576040519150601f19603f3d011682016040523d82523d6000602084013e612502565b606091505b5050905080612546576040517f08c379a000000000000000000000000000000000000000000000000000000000815260040161253d90613d66565b60405180910390fd5b601860009054906101000a900473ffffffffffffffffffffffffffffffffffffffff1673ffffffffffffffffffffffffffffffffffffffff1663c8b9bedb60146040518263ffffffff1660e01b81526004016125a29190613e1b565b600060405180830381600087803b1580156125bc57600080fd5b505af11580156125d0573d6000803e3d6000fd5b505050507f96594889859358b036c15d31e598613d775998a475692aedee49568f444bea85600b5460405161260591906129dd565b60405180910390a17fcb4b24a99cfd8e8fb2105a9a3e7f714baac78277d64f113e4edee1dceafbdecb60405161263a90613e89565b60405180910390a17fd4ba6fec82d9b0e8ffe50b9fed9e4be3b25c984ce1e0e016405a5528726e8a2c601d60009054906101000a900473ffffffffffffffffffffffffffffffffffffffff16601a54604051612697929190613c5b565b60405180910390a1505061272c565b6001600b60008282546126b9919061355d565b92505081905550426008819055506001602460006101000a81548160ff021916908360048111156126ed576126ec613035565b5b02179055507f33a701182892fd888ed152ca2ac23771a32e814469b7cd255965471e1af3a659600b5460405161272391906129dd565b60405180910390a15b505050565b6000806000905060005b600b548110156127c957601e6000600f548152602001908152602001600020600082815260200190815260200160002060003373ffffffffffffffffffffffffffffffffffffffff1673ffffffffffffffffffffffffffffffffffffffff16815260200190815260200160002054826127b4919061355d565b915080806127c19061343c565b91505061273b565b5080915050919050565b6127db612915565b73ffffffffffffffffffffffffffffffffffffffff166127f9611608565b73ffffffffffffffffffffffffffffffffffffffff161461284f576040517f08c379a000000000000000000000000000000000000000000000000000000000815260040161284690613ef5565b60405180910390fd5b565b60008060009054906101000a900473ffffffffffffffffffffffffffffffffffffffff169050816000806101000a81548173ffffffffffffffffffffffffffffffffffffffff021916908373ffffffffffffffffffffffffffffffffffffffff1602179055508173ffffffffffffffffffffffffffffffffffffffff168173ffffffffffffffffffffffffffffffffffffffff167f8be0079c531659141344cd1fd0a4f28419497f9722a3daafe3b4186f6b6457e060405160405180910390a35050565b600033905090565b828054828255906000526020600020908101928215612996579160200282015b828111156129955782518260006101000a81548173ffffffffffffffffffffffffffffffffffffffff021916908373ffffffffffffffffffffffffffffffffffffffff1602179055509160200191906001019061293d565b5b5090506129a391906129a7565b5090565b5b808211156129c05760008160009055506001016129a8565b5090565b6000819050919050565b6129d7816129c4565b82525050565b60006020820190506129f260008301846129ce565b92915050565b6000604051905090565b600080fd5b600080fd5b612a15816129c4565b8114612a2057600080fd5b50565b600081359050612a3281612a0c565b92915050565b600080fd5b6000601f19601f8301169050919050565b7f4e487b7100000000000000000000000000000000000000000000000000000000600052604160045260246000fd5b612a8682612a3d565b810181811067ffffffffffffffff82111715612aa557612aa4612a4e565b5b80604052505050565b6000612ab86129f8565b9050612ac48282612a7d565b919050565b600067ffffffffffffffff821115612ae457612ae3612a4e565b5b602082029050602081019050919050565b600080fd5b6000612b0d612b0884612ac9565b612aae565b90508083825260208201905060208402830185811115612b3057612b2f612af5565b5b835b81811015612b595780612b458882612a23565b845260208401935050602081019050612b32565b5050509392505050565b600082601f830112612b7857612b77612a38565b5b8135612b88848260208601612afa565b91505092915050565b60008060408385031215612ba857612ba7612a02565b5b6000612bb685828601612a23565b925050602083013567ffffffffffffffff811115612bd757612bd6612a07565b5b612be385828601612b63565b9150509250929050565b600060208284031215612c0357612c02612a02565b5b6000612c1184828501612a23565b91505092915050565b600073ffffffffffffffffffffffffffffffffffffffff82169050919050565b6000612c4582612c1a565b9050919050565b612c5581612c3a565b82525050565b6000602082019050612c706000830184612c4c565b92915050565b600081519050919050565b600082825260208201905092915050565b60005b83811015612cb0578082015181840152602081019050612c95565b83811115612cbf576000848401525b50505050565b6000612cd082612c76565b612cda8185612c81565b9350612cea818560208601612c92565b612cf381612a3d565b840191505092915050565b60006020820190508181036000830152612d188184612cc5565b905092915050565b600080fd5b60008083601f840112612d3b57612d3a612a38565b5b8235905067ffffffffffffffff811115612d5857612d57612d20565b5b602083019150836001820283011115612d7457612d73612af5565b5b9250929050565b60008060208385031215612d9257612d91612a02565b5b600083013567ffffffffffffffff811115612db057612daf612a07565b5b612dbc85828601612d25565b92509250509250929050565b6000612dd382612c1a565b9050919050565b612de381612dc8565b8114612dee57600080fd5b50565b600081359050612e0081612dda565b92915050565b600060208284031215612e1c57612e1b612a02565b5b6000612e2a84828501612df1565b91505092915050565b60008115159050919050565b612e4881612e33565b82525050565b6000602082019050612e636000830184612e3f565b92915050565b60008060008060808587031215612e8357612e82612a02565b5b6000612e9187828801612a23565b9450506020612ea287828801612a23565b9350506040612eb387828801612a23565b9250506060612ec487828801612a23565b91505092959194509250565b600081519050919050565b600082825260208201905092915050565b6000612ef782612ed0565b612f018185612edb565b9350612f11818560208601612c92565b612f1a81612a3d565b840191505092915050565b6000604082019050612f3a6000830185612e3f565b8181036020830152612f4c8184612eec565b90509392505050565b600081519050919050565b600082825260208201905092915050565b6000819050602082019050919050565b612f8a81612c3a565b82525050565b6000612f9c8383612f81565b60208301905092915050565b6000602082019050919050565b6000612fc082612f55565b612fca8185612f60565b9350612fd583612f71565b8060005b83811015613006578151612fed8882612f90565b9750612ff883612fa8565b925050600181019050612fd9565b5085935050505092915050565b6000602082019050818103600083015261302d8184612fb5565b905092915050565b7f4e487b7100000000000000000000000000000000000000000000000000000000600052602160045260246000fd5b6005811061307557613074613035565b5b50565b600081905061308682613064565b919050565b600061309682613078565b9050919050565b6130a68161308b565b82525050565b60006020820190506130c1600083018461309d565b92915050565b6130d081612dc8565b82525050565b60006020820190506130eb60008301846130c7565b92915050565b6000806040838503121561310857613107612a02565b5b600061311685828601612a23565b925050602061312785828601612df1565b9150509250929050565b600060408201905061314660008301856130c7565b61315360208301846130c7565b9392505050565b7f4e487b7100000000000000000000000000000000000000000000000000000000600052602260045260246000fd5b600060028204905060018216806131a157607f821691505b602082108114156131b5576131b461315a565b5b50919050565b7f4e487b7100000000000000000000000000000000000000000000000000000000600052601160045260246000fd5b60006131f5826129c4565b9150613200836129c4565b925082821015613213576132126131bb565b5b828203905092915050565b60008151905061322d81612a0c565b92915050565b60006020828403121561324957613248612a02565b5b60006132578482850161321e565b91505092915050565b600069ffffffffffffffffffff82169050919050565b61327f81613260565b811461328a57600080fd5b50565b60008151905061329c81613276565b92915050565b6000819050919050565b6132b5816132a2565b81146132c057600080fd5b50565b6000815190506132d2816132ac565b92915050565b600080600080600060a086880312156132f4576132f3612a02565b5b60006133028882890161328d565b9550506020613313888289016132c3565b94505060406133248882890161321e565b93505060606133358882890161321e565b92505060806133468882890161328d565b9150509295509295909350565b600061335e826129c4565b9150613369836129c4565b9250817fffffffffffffffffffffffffffffffffffffffffffffffffffffffffffffffff04831182151516156133a2576133a16131bb565b5b828202905092915050565b7f4e487b7100000000000000000000000000000000000000000000000000000000600052601260045260246000fd5b60006133e7826129c4565b91506133f2836129c4565b925082613402576134016133ad565b5b828204905092915050565b7f4e487b7100000000000000000000000000000000000000000000000000000000600052603260045260246000fd5b6000613447826129c4565b91507fffffffffffffffffffffffffffffffffffffffffffffffffffffffffffffffff82141561347a576134796131bb565b5b600182019050919050565b7f596f752061726520746f6f206c61746520666f72207468697320726f756e6400600082015250565b60006134bb601f83612c81565b91506134c682613485565b602082019050919050565b600060208201905081810360008301526134ea816134ae565b9050919050565b7f596f7520646f6e2774206861766520656e6f7567682062657473206c65667400600082015250565b6000613527601f83612c81565b9150613532826134f1565b602082019050919050565b600060208201905081810360008301526135568161351a565b9050919050565b6000613568826129c4565b9150613573836129c4565b9250827fffffffffffffffffffffffffffffffffffffffffffffffffffffffffffffffff038211156135a8576135a76131bb565b5b828201905092915050565b60006060820190506135c860008301866130c7565b6135d560208301856129ce565b6135e260408301846129ce565b949350505050565b60006040820190506135ff60008301856130c7565b61360c60208301846129ce565b9392505050565b61361c81612e33565b811461362757600080fd5b50565b60008151905061363981613613565b92915050565b60006020828403121561365557613654612a02565b5b60006136638482850161362a565b91505092915050565b7f43616e2774206a6f696e20612067616d6520616674657220697420686173207360008201527f7461727465640000000000000000000000000000000000000000000000000000602082015250565b60006136c8602683612c81565b91506136d38261366c565b604082019050919050565b600060208201905081810360008301526136f7816136bb565b9050919050565b7f4e6f7420656e6f75676820455448000000000000000000000000000000000000600082015250565b6000613734600e83612c81565b915061373f826136fe565b602082019050919050565b6000602082019050818103600083015261376381613727565b9050919050565b7f43616e27742073746172742061206e65772067616d6500000000000000000000600082015250565b60006137a0601683612c81565b91506137ab8261376a565b602082019050919050565b600060208201905081810360008301526137cf81613793565b9050919050565b7f5468657265206d757374206265206174206c656173742074776f20706c61796560008201527f727320696e207468652067616d65000000000000000000000000000000000000602082015250565b6000613832602e83612c81565b915061383d826137d6565b604082019050919050565b6000602082019050818103600083015261386181613825565b9050919050565b7f4f70656e00000000000000000000000000000000000000000000000000000000600082015250565b600061389e600483612c81565b91506138a982613868565b602082019050919050565b600060208201905081810360008301526138cd81613891565b9050919050565b6000819050919050565b6138e7816138d4565b82525050565b600067ffffffffffffffff82169050919050565b61390a816138ed565b82525050565b600061ffff82169050919050565b61392781613910565b82525050565b600063ffffffff82169050919050565b6139468161392d565b82525050565b600060a08201905061396160008301886138de565b61396e6020830187613901565b61397b604083018661391e565b613988606083018561393d565b613995608083018461393d565b9695505050505050565b7f43616c63756c6174696e672077696e6e65720000000000000000000000000000600082015250565b60006139d5601283612c81565b91506139e08261399f565b602082019050919050565b60006020820190508181036000830152613a04816139c8565b9050919050565b6000819050919050565b6000819050919050565b6000613a3a613a35613a3084613a0b565b613a15565b6129c4565b9050919050565b613a4a81613a1f565b82525050565b6000602082019050613a656000830184613a41565b92915050565b7f4f776e61626c653a206e6577206f776e657220697320746865207a65726f206160008201527f6464726573730000000000000000000000000000000000000000000000000000602082015250565b6000613ac7602683612c81565b9150613ad282613a6b565b604082019050919050565b60006020820190508181036000830152613af681613aba565b9050919050565b7f596f75206172656e277420746865726520796574210000000000000000000000600082015250565b6000613b33601583612c81565b9150613b3e82613afd565b602082019050919050565b60006020820190508181036000830152613b6281613b26565b9050919050565b7f5468657265206d757374206265206265747320696e2074686520726f756e6400600082015250565b6000613b9f601f83612c81565b9150613baa82613b69565b602082019050919050565b60006020820190508181036000830152613bce81613b92565b9050919050565b6000613be0826129c4565b9150613beb836129c4565b925082613bfb57613bfa6133ad565b5b828206905092915050565b6000613c21613c1c613c1784612c1a565b613a15565b612c1a565b9050919050565b6000613c3382613c06565b9050919050565b6000613c4582613c28565b9050919050565b613c5581613c3a565b82525050565b6000604082019050613c706000830185613c4c565b613c7d60208301846129ce565b9392505050565b6000613c8f826129c4565b91506000821415613ca357613ca26131bb565b5b600182039050919050565b600081905092915050565b50565b6000613cc9600083613cae565b9150613cd482613cb9565b600082019050919050565b6000613cea82613cbc565b9150819050919050565b7f5468652066756e64732077657265206e6f74207472616e73666572726564206160008201527f742074686520656e64206f66207468652067616d650000000000000000000000602082015250565b6000613d50603583612c81565b9150613d5b82613cf4565b604082019050919050565b60006020820190508181036000830152613d7f81613d43565b9050919050565b60008190508160005260206000209050919050565b60008154613da881613189565b613db28186612c81565b94506001821660008114613dcd5760018114613ddf57613e12565b60ff1983168652602086019350613e12565b613de885613d86565b60005b83811015613e0a57815481890152600182019150602081019050613deb565b808801955050505b50505092915050565b60006020820190508181036000830152613e358184613d9b565b905092915050565b7f436c6f7365640000000000000000000000000000000000000000000000000000600082015250565b6000613e73600683612c81565b9150613e7e82613e3d565b602082019050919050565b60006020820190508181036000830152613ea281613e66565b9050919050565b7f4f776e61626c653a2063616c6c6572206973206e6f7420746865206f776e6572600082015250565b6000613edf602083612c81565b9150613eea82613ea9565b602082019050919050565b60006020820190508181036000830152613f0e81613ed2565b905091905056fea2646970667358221220a61f974fb67291da0c34d4933673da710294464051069e6cfee40abaddb0901864736f6c63430008090033",
  "linkReferences": {},
  "deployedLinkReferences": {}
}